:100B35007593007594007591007592007595007513
:100B4500960075B10075B20075B30075B40075C92E
:100B55000075CA0075CB0075CC0075E10075E20023
:010B6500226D
:100B0200120B357F06120DEC7F06120DF71209212A
:100B1200E4FF120CEFE4F513120D571207E012096D
:100B2200A5E51370F6120963120026120A96120442
:030B32002280E836
:100D0A00EF4E60157D087C07ED1DAA0470011C4A90
:090D1A0070F6EF1F70EA1E80E77D
:010D230022AD
:100D6F00D3EF9400EE9400400C0000000000EF1F42
:060D7F0070EE1E80EB2265
:1008BF0013253F065B4F666D7D077F6F40777C3951
:1008CF005E797176000421686A6C6E0839112131E6
:0508DF004151617101AF
:0E0D9A00D2C3D2C27F057E00120D6FC2C222EC
:0E0DA800D2B7D2C17F057E00120D6FC2C122EC
:100B9200756101D2C37F057E00120D6FC2C330C2E0
:100BA2000FD3E5619464748094805004056180EEF3
:090BB2007F057E00120D6FC2B731
:010BBB002217
:100BBC00756101D2B77F057E00120D6FC2B730C1CF
:100BCC000FD3E5619464748094805004056180EEC9
:090BDC007F057E00120D6FC2B707
:010BE50022ED
:0E0DB600D2C3C2C27F057E00120D6FD2C222D0
:0E0DC400D2B7C2C17F057E00120D6FD2C122D0
:020A22008F61E2
:100A2400C2C37F017E00120D6FE4F562C3E56294D8
:100A340008748094805020E56125E0F56192C2C27B
:100A4400C37F057E00120D6FD2C37F057E00120D99
:070A54006FC2C3056280D5EB
:010A5B002278
:020A5C008F61A8
:100A5E00C2B77F017E00120D6FE4F562C3E56294AA
:100A6E0008748094805020E56125E0F56192C1C242
:100A7E00B77F057E00120D6FD2B77F057E00120D77
:070A8E006FC2B7056280D5BD
:010A9500223E
:03000300F8E6FD1F
:100006008F5F8D60120D9AAF5F120A22120B92AFAC
:0A00160060120A22120B92020DB6CE
:030C9C00F8E6FD7A
:100C9F008F5F8D60120DA8AF5F120A5C120BBCAF95
:0A0CAF0060120A5C120BBC020DC4B7
:0406D600AB07AA06BE
:1006DA007C277D1012086A7E037FE8CFCDCFCECC6F
:1006EA00CE12086A8F5B7C037DE8AF03AE02120864
:1006FA006A7E007F64CFCDCFCECCCE12086A8F5CE3
:10070A007C007D64AF03AE0212086A7E007F0ACFC6
:10071A00CDCFCECCCE12086A8F5DAE02AF037C007D
:10072A007D0A12086A8D5E7425255B7F68120003B4
:10073A007425255C7F6A1200037425255DF8E6FDA1
:10074A007F6C1200067425255EF8E6FD7F6E0200B6
:01075A000698
:04075B00AB07AA0638
:10075F007C277D1012086A7E037FE8CFCDCFCECCE9
:10076F00CE12086A8F5B7C037DE8AF03AE021208DE
:10077F006A7E007F64CFCDCFCECCCE12086A8F5C5D
:10078F007C007D64AF03AE0212086A7E007F0ACF41
:10079F00CDCFCECCCE12086A8F5DAE02AF037C00F8
:1007AF007D0A12086A8D5E7425255B7F68120C9C8A
:1007BF007425255C7F6A120C9C7425255DF8E6FD77
:1007CF007F6C120C9F7425255EF8E6FD7F6E020C80
:0107DF009F7A
:0B0DEC0074382FF8E6FD7F4802000677
:0B0DF70074382FF8E6FD7F48020C9FC7
:0308E400011E02F0
:10002600E4F59575960343F10475BA8090FFA2F046
:10003600E51E14B40900400302022B90004F75F030
:1000460003A4C58325F0C5837302006A02009B02E0
:1000560000D0020102020134020166020197020188
:10006600C80201F990FFA0740EF0A3746CF090FF23
:10007600B27407F0A37420F090FFB0740AF0A37472
:10008600BEF090FFBAE4F0A3F090FFB87403F0A3BB
:10009600749002022790FFA0740DF0A374C6F0902E
:1000A600FFB27406F0A374D9F090FFB0740AF0A3FF
:1000B600744FF090FFBAE4F0A3F090FFB87403F029
:1000C600A37470F0751F0102022B90FFA0740DF04F
:1000D600A37431F090FFB27406F0A37499F090FF08
:1000E600B07409F0A374F0F090FFBAE4F0A3F090B6
:1000F600FFB87403F0A3744AF002022B90FFA074B9
:100106000CF0A374A6F090FFB27406F0A37449F045
:1001160090FFB07409F0A37480F090FFBAE4F0A3E6
:10012600F090FFB87403F0A3742AF002022B90FF3C
:10013600A0740CF0A37426F090FFB27406F0A374BA
:1001460019F090FFB07409F0A37420F090FFBAE4A0
:10015600F0A3F090FFB87403F0A3740AF002022B28
:1001660090FFA0740BF0A374B5F090FFB27405F085
:10017600A374E0F090FFB07408F0A374CAF090FF87
:10018600BAE4F0A3F090FFB87402F0A374F0020290
:100196002790FFA0740BF0A3744BF090FFB2740588
:1001A600F0A374AEF090FFB07408F0A3746AF090F8
:1001B600FFBAE4F0A3F090FFB87402F0A374D0F095
:1001C600806390FFA0740AF0A374E4F090FFB27409
:1001D60005F0A3748EF090FFB07408F0A3743AF0A3
:1001E60090FFBAE4F0A3F090FFB87402F0A374C0D5
:1001F600F0803290FFA0740AF0A37485F090FFB2ED
:100206007405F0A3744EF090FFB07407F0A374F079
:10021600F090FFBAE4F0A3F090FFB87402F0A37474
:10022600B0F0E4F51F90FFB47480F090FFBCF0E4EA
:03023600F5BA22F4
:100A9600E4F5B175B20843F10875BA8090FC02F02E
:100AA60090FC007402F0A37474F090FC287401F0BA
:100AB600A3E4F0A37402F0A37440F0A37480F0E4FE
:060AC600F5BA75F71122DC
:0A08E700C180025900000253000016
:0D0DD200E4F5C7F5C5F5C675C380F5C4226C
:100CB90075C78075F51875C5018FC48EC375C65A79
:0B0CC90075C6A5000000AFC2020DD2EE
:100CD40075C78075F51875C5028FC48EC38DC2752E
:0B0CE400C65A75C6A5000000020DD224
:100D3E0075C78075F51875C5038FC48EC375C65AF1
:090D4E0075C6A5000000020DD2DB
:100921007F017E00120CB98F167F02120CB98F174E
:100931007F03120CB98F187F04120CB98F197F0530
:10094100120CB98F11E516F4700F751601751702A7
:10095100751803751904120C56E511F4700375111D
:020961003C2236
:100C5600E4FFFE120D3EAD160F120CD4AD170F12A7
:100C66000CD4AD180F120CD4AD190F120CD4AD1153
:040C76000F020CD489
:100D2400855A56E559F5557F007E02120D3EAD55A4
:0A0D34000F120CD4AD560F020CD4C0
:1008F1000113000115000110000114000112000193
:100901001600011700011800011900011A01011B4D
:0709110002011C03011D049B
:1007E000E51314605F14605E24FE6058240470609A
:1007F000E4F515E5126401703DAD357F6812000621
:10080000AD2F7F6A120006E51E75F06484E5F07571
:10081000F00A842425F8E6FD7F6C120006E51E75BB
:10082000F00A84742525F0F8E6FD7F6E1200067F3D
:10083000E87E03020D0AAF5AAE591206D6AF54AE87
:100840005302075B8007120ACCE4F5152212033825
:010850002285
:100338000514AF147E00C3EF947874809480500342
:10034800751001D3EF9478EE648094804003E4F54F
:1003580010EF64F04E7002F5147425251AF8E6FDC6
:100368007F68120C9F7425251BF8E6FD7F6A120C26
:100378009F7425251CF8E6FD7F6C120C9F742525BB
:100388001DF8E6FD7F6E120C9FE51514602A1460B7
:100398004714606424036003020421E51014600B11
:1003A8000470767425251AF8E680087425251AF84D
:1003B800E64480FD7F68805EE51014600E04705985
:1003C8007425251BF8E6FD7F6A804B7425251BF8EC
:1003D800E64480FD7F6A803EE51014600E047039A3
:1003E8007425251CF8E6FD7F6C802B7425251CF8E8
:1003F800E64480FD7F6C801EE51014600E047019C1
:100408007425251DF8E6FD7F6E800B7425251DF8E3
:0A041800E64480FD7F6E120C9F2267
:10023900E51314602E1470030202C3147003020242
:10024900D41470030202E524046003020337751213
:1002590001051ED3E51E940974809480500302039E
:10026900378075E51514601F14602E14603D240352
:100279006003020337051AD3E51A94097480948040
:1002890050030203378071051BD3E51B9409748061
:10029900948050030203378070051CD3E51C940930
:1002A900748094805003020337806F051DD3E51DC8
:1002B900940974809480407680710511D3E5119476
:1002C9006474809480406775110122051ED3E51E70
:1002D9009409748094804056751E0122E5151460B6
:1002E9001B14602914603724037043051AD3E51AD7
:1002F9009409748094804036E4F51A22051BD3E5ED
:100309001B9409748094804025E4F51B22051CD3B5
:10031900E51C9409748094804014E4F51C22051DA1
:0F032900D3E51D9409748094804003E4F51D22F0
:10050800E51324FE604C24FE6053240360030205B7
:10051800B7E51514601B14602314602B24036003D3
:100528000205B7151AE51AF460030205B7751A092A
:1005380022151BE51BF47077751B0922151CE51C99
:10054800F4706C751C0922151DE51DF47061751D8C
:1005580009221511E511F4705675116322E5151479
:10056800601B14602914603724037043051AD3E50F
:100578001A9409748094804036E4F51A22051BD336
:10058800E51B9409748094804025E4F51B22051C22
:10059800D3E51C9409748094804014E4F51C22056A
:1005A8001DD3E51D9409748094804003E4F51D2251
:100C7A00E51324FC601024037017E5156403700360
:100C8A000205B8051522E51564037003020BE60593
:020C9A00152221
:1005B800AF16120E02AF17120E02AF18120E02AFCC
:1005C80019120E02E51A6408702AE51B64087024E3
:1005D800E51C6408701EE51D640870187F207E0302
:1005E800120D0A751304751A01751B01751C017526
:1005F8001D01804AE51A65167024E51BB5171FE52D
:100608001CB5181AE51DB51915AD327F68120C9F77
:10061800120D857F207E03120D0A75130222AD3458
:100628007F68120C9F120D857F207E03120D0A75BC
:100638001301751A01751B02751C03751D04E4F579
:02064800152279
:100BE600851A16851B17851C18851D19120C567F2C
:100BF6002C7E01120D0AE4F513751A01751B027598
:060C06001C03751D042211
:100D8500AD257F6A120C9FAD257F6C120C9FAD259A
:050D95007F6E020C9FBF
:100ACC00AD267F68120C9FAD2F7F6A120C9FE5112B
:100ADC0075F06484E5F075F00A842425F8E6FD7F52
:100AEC006C120C9FE51175F00A84742525F0F8E65C
:060AFC00FD7F6E020C9F5D
:1009E600120D9A7F49120A22120B92E4F55BC3E5B7
:1009F6005B940874809480501AD2C3E55C25E0F5B8
:100A06005C30C202055C7F0A7E00120D6FC2C30510
:0B0A16005B80DB120B92120DB6AF5C90
:010A210022B2
:1009A5001209E6EF24B1601E24F8602224F86023C2
:1009B500241870290513D3E513940474809480409A
:1009C50015E4F5138010120239751201800812051D
:1009D500088003120C7A7F2C7E01020D0AE4F512C1
:0109E50022EF
:02091800C1011B
:100CEF0043BA8090FEA8743FF053BA7F43BC805341
:0B0CFF00BCF0EF540F42DE43DE202269
:100B660053BCF0EF42BC43BC40000000E5BC30E59E
:100B7600FB53BCDFAFBDEFFEACBEECFBEBFFA80545
:0B0B8600088005CEC313CE13D8F9FF82
:010B91002241
:09042200E566640160030204FCBC
:10042B00FDFF120B668E5B8F5CD3E55C9450E55B36
:10043B009400400D20010AD2010554E554700205C9
:10044B0053D3E55C9450E55B9400400FE55C94C896
:10045B00E55B94005005C285C28422D3E55C94C849
:10046B00E55B94004011E55C9490E55B94015007CB
:10047B00C285C286C28422D3E55C9490E55B94016D
:10048B004013E55C9458E55B94025009C285C28623
:10049B00C287C28422D3E55C9458E55B9402401575
:1004AB00E55C9420E55B9403500BC285C286C28742
:1004BB00C294C28422D3E55C9420E55B940340177D
:1004CB00E55C94E8E55B9403500DC285C286C28758
:1004DB00C294C295C28422D3E55C94E8E55B940395
:1004EB00401AC285C286C287C294C295C296C28484
:0D04FB0022E5667007C201120DDFD28422D7
:0D0DDF00D285D286D287D294D295D29622A8
:100D570075985075D7CC75D6FF758E15E4F542F5A5
:080D670041C202D2ACD2AF225E
:080E02002002FDD2028F9922AB
:100C0C008B638A648965AB63AA64A9651208516019
:100C1C00130565E5657002056414F9120851FF129D
:050C2C000E0280E2222F
:03002300020C319B
:100C3100C0E0C0D075D008309904C299C202309882
:100C41000FC298AF42054274432FF8A69953420F41
:050C5100D0D0D0E0321C
:06091A0001660001670008
:1009630030C00320CC16E5667012A2CC33FF120E02
:1009730002756601055AE55A7002055930C02230E6
:10098300CC1FE566640170190567D3E56794647449
:10099300809480400CE4F567F566A2CC33FF120E19
:0209A30002222E
:0300000002064AAB
:0C064A00787FE4F6D8FD75816702069108
:10085100BB010689828A83E0225002E722BBFE02A5
:09086100E32289828A83E49322D8
:10086A00BC000BBE0029EF8DF084FFADF022E4CC72
:10087A00F875F008EF2FFFEE33FEEC33FCEE9DEC3B
:10088A00984005FCEE9DFE0FD5F0E9E4CEFD22ED81
:10089A00F8F5F0EE8420D21CFEADF075F008EF2FCB
:1008AA00FFED33FD4007985006D5F0F222C398FDBC
:0508BA000FD5F0EA2259
:10065600020B02E493A3F8E493A34003F68001F2AD
:1006660008DFF48029E493A3F85407240CC8C333A5
:10067600C4540F4420C8834004F456800146F6DF74
:10068600E4800B01020408102040809008BFE47E3D
:10069600019360BCA3FF543F30E509541FFEE49369
:1006A600A360010ECF54C025E060A840B8E493A330
:1006B600FAE493A3F8E493A3C8C582C8CAC583CA5B
:1006C600F0A3C8C582C8CAC583CADFE9DEE780BE13
:0109200000D6
:00000001FF
