:100CE6007593007594007591007592007595007561
:100CF600960075B10075B20075B30075B40075C97C
:100D06000075CA0075CB0075CC0075E10075E20070
:010D160022BA
:100B5200120CE67F06120FD97F06120FE41209AFBC
:100B6200E4FF120EDBE4F557120F297F107E2712E5
:100B72000EF6120AEE7F887E13120EF6120A1C126D
:100B82000643E55770F6120CB2120026120C4612FA
:040B9200023980E8BC
:100AEE00E4F510F511C2857F587E02120EF6D285FE
:100AFE00C2867F587E02120EF6D286C2877F587E3D
:100B0E0002120EF6D287C2947F587E02120EF6D2D1
:100B1E0094C2957F587E02120EF6D295C2967F58D9
:100B2E007E02120EF6D2960511E51170020510C363
:100B3E009402E510940040ADC2847F587E02120EDE
:030B4E00F6D28458
:010B51002281
:100EF600EF4E60157D087C07ED1DAA0470011C4AA3
:090F060070F6EF1F70EA1E80E78F
:010F0F0022BF
:100F4100D3EF9400EE9400400C0000000000EF1F6E
:060F510070EE1E80EB2291
:100A860013253F065B4F666D7D077F6F40777C3988
:100A96005E797176000421686A6C6E08391121311D
:050AA6004151617101E6
:0E0F6C00D2C3D2C27F057E00120F41C2C22244
:0E0F7A00D2B7D2C17F057E00120F41C2C12244
:100DA000751701D2C37F057E00120F41C2C330C246
:100DB0000FD3E5179464748094805004051780EE77
:090DC0007F057E00120F41C2B74D
:010DC9002207
:100DCA00751701D2B77F057E00120F41C2B730C135
:100DDA000FD3E5179464748094805004051780EE4D
:090DEA007F057E00120F41C2B723
:010DF30022DD
:0E0F8800D2C3C2C27F057E00120F41D2C22228
:0E0F9600D2B7C2C17F057E00120F41D2C12228
:020BD2008F177B
:100BD400C2C37F017E00120F41E4F518C3E51894E7
:100BE40008748094805020E51725E0F51792C2C25E
:100BF400C37F057E00120F41D2C37F057E00120F12
:070C040041C2C3051880D5B1
:010C0B0022C6
:020C0C008F1740
:100C0E00C2B77F017E00120F41E4F518C3E51894B8
:100C1E0008748094805020E51725E0F51792C1C224
:100C2E00B77F057E00120F41D2B77F057E00120FEF
:070C3E0041C2B7051880D583
:010C4500228C
:03000300F8E6FD1F
:100006008F158D16120F6CAF15120BD2120DA0AFF5
:0A00160016120BD2120DA0020F8883
:030E8800F8E6FD8C
:100E8B008F158D16120F7AAF15120C0C120DCAAFEF
:0A0E9B0016120C0C120DCA020F967D
:0408BC00AB07AA06D6
:1008C0007C277D1012095A7E037FE8CFCDCFCECC96
:1008D000CE12095A8F117C037DE8AF03AE021209D4
:1008E0005A7E007F64CFCDCFCECCCE12095A8F1264
:1008F0007C007D64AF03AE0212095A7E007F0ACFEE
:10090000CDCFCECCCE12095A8F13AE02AF037C00EE
:100910007D0A12095A8D14742525117F681200036F
:10092000742525127F6A12000374252513F8E6FD4D
:100930007F6C12000674252514F8E6FD7F6E020018
:0109400006B0
:0406FC00AB07AA0698
:100700007C277D1012095A7E037FE8CFCDCFCECC57
:10071000CE12095A8F117C037DE8AF03AE02120995
:100720005A7E007F64CFCDCFCECCCE12095A8F1225
:100730007C007D64AF03AE0212095A7E007F0ACFAF
:10074000CDCFCECCCE12095A8F13AE02AF037C00B0
:100750007D0A12095A8D14742525117F68120E889E
:1007600074252512F8E6FD7F6A120E8B7425251379
:10077000F8E6FD7F6C120E8B742525147F6E120E29
:1007800088E5546401700A74252514F8E6448080D5
:0D0790000674252514F8E6FD7F6E120E8B11
:01079D002239
:0B0FD90074382FF8E6FD7F4802000688
:0B0FE40074382FF8E6FD7F48020E8BEA
:030AAB00016F02D6
:10002600E4F59575960343F10475BA8090FFA2F046
:10003600E56F14B40900400302022B90004F75F0DF
:1000460003A4C58325F0C5837302006A02009B02E0
:1000560000D0020102020134020166020197020188
:10006600C80201F990FFA0740EF0A3746CF090FF23
:10007600B27407F0A37420F090FFB0740AF0A37472
:10008600BEF090FFBAE4F0A3F090FFB87403F0A3BB
:10009600749002022790FFA0740DF0A374C6F0902E
:1000A600FFB27406F0A374D9F090FFB0740AF0A3FF
:1000B600744FF090FFBAE4F0A3F090FFB87403F029
:1000C600A37470F075700102022B90FFA0740DF0FE
:1000D600A37431F090FFB27406F0A37499F090FF08
:1000E600B07409F0A374F0F090FFBAE4F0A3F090B6
:1000F600FFB87403F0A3744AF002022B90FFA074B9
:100106000CF0A374A6F090FFB27406F0A37449F045
:1001160090FFB07409F0A37480F090FFBAE4F0A3E6
:10012600F090FFB87403F0A3742AF002022B90FF3C
:10013600A0740CF0A37426F090FFB27406F0A374BA
:1001460019F090FFB07409F0A37420F090FFBAE4A0
:10015600F0A3F090FFB87403F0A3740AF002022B28
:1001660090FFA0740BF0A374B5F090FFB27405F085
:10017600A374E0F090FFB07408F0A374CAF090FF87
:10018600BAE4F0A3F090FFB87402F0A374F0020290
:100196002790FFA0740BF0A3744BF090FFB2740588
:1001A600F0A374AEF090FFB07408F0A3746AF090F8
:1001B600FFBAE4F0A3F090FFB87402F0A374D0F095
:1001C600806390FFA0740AF0A374E4F090FFB27409
:1001D60005F0A3748EF090FFB07408F0A3743AF0A3
:1001E60090FFBAE4F0A3F090FFB87402F0A374C0D5
:1001F600F0803290FFA0740AF0A37485F090FFB2ED
:100206007405F0A3744EF090FFB07407F0A374F079
:10021600F090FFBAE4F0A3F090FFB87402F0A37474
:10022600B0F0E4F57090FFB47480F090FFBCF0E499
:03023600F5BA22F4
:100C4600E4F5B175B20843F10875BA8090FC02F07C
:100C560090FC007402F0A37474F090FC287401F008
:100C6600A3E4F0A37402F0A37440F0A37480F0E44C
:060C7600F5BA75F711222A
:0A0AAE00C180026A0000026400002B
:0D0FB200E4F5C7F5C5F5C675C380F5C4228A
:100EA50075C78075F51875C5018FC48EC375C65A8B
:0B0EB50075C6A5000000AFC2020FB21E
:100EC00075C78075F51875C5028FC48EC38DC27540
:0B0ED000C65A75C6A5000000020FB254
:100F100075C78075F51875C5038FC48EC375C65A1D
:090F200075C6A5000000020FB225
:1009AF007F017E00120EA58F5C7F02120EA58F5D58
:1009BF007F03120EA58F5E7F04120EA58F5F7F053A
:1009CF00120EA58F557F017E02120EA58F6FD3E5F4
:1009DF0055946474809480400375555AE555F4041A
:1009EF00249FF51BD3E56F940974809480400375A1
:1009FF006F02D3E55C940974809480400F755C019D
:0D0A0F00755D02755E03755F04120E6422B2
:100E6400E4FFFE120F10AD5C0F120EC0AD5D0F1249
:100E74000EC0AD5E0F120EC0AD5F0F120EC0AD55A9
:040E84000F020EC08B
:0D0FBF00AD077F007E02120F100F020EC062
:100AB800015700015B000153000159000154000176
:100AC8005A00015C00015D00015E00015F000160E9
:0A0AD80001016102016203016304E1
:100A1C00E557146022146021146025146019240415
:100A2C007057E4F55BE55A7050AF6BAE6A1208BCB8
:100A3C00AF65AE640206FC803D120C7CE4F55B22D3
:100A4C00AD357F68120E8BAD2F7F6A120E8BE56F62
:100A5C0075F06484E5F075F00A842425F8E6FD7FD2
:100A6C006C120E8BE56F75F00A84742525F0F8E690
:0A0A7C00FD7F6E020E8B12049D2216
:10049D000559AF597E00C3EF947874809480500352
:1004AD00755301D3EF9478EE648094804003E4F5A6
:1004BD0053EF64F04E7002F55974252560F8E6FD92
:1004CD007F68120E8B74252561F8E6FD7F6A120E8A
:1004DD008B74252562F8E6FD7F6C120E8B74252535
:1004ED0063F8E6FD7F6E120E8BE55B14602A1460D7
:1004FD004714606424036003020586E55314600B02
:10050D0004707674252560F8E6800874252560F85A
:10051D00E64480FD7F68805EE55314600E047059DB
:10052D0074252561F8E6FD7F6A804B74252561F8F9
:10053D00E64480FD7F6A803EE55314600E047039F9
:10054D0074252562F8E6FD7F6C802B74252562F8F5
:10055D00E64480FD7F6C801EE55314600E04701917
:10056D0074252563F8E6FD7F6E800B74252563F8F1
:0A057D00E64480FD7F6E120E8B2213
:1003AE00E55714601E146072147003020439147041
:1003BE000302044A2404600302049C755703AF6FC2
:1003CE00020FEFE55B14601F14602E14603D2403D2
:1003DE00600302049C0560D3E560940974809480E8
:1003EE00500302049C80710561D3E5619409748009
:1003FE009480500302049C80700562D3E5629409D8
:10040E0074809480500302049C806F0563D3E5636F
:10041E00940974809480407680710555D3E5559487
:10042E006474809480406775550122056FD3E56F23
:10043E009409748094804056756F0122E55B1460B8
:10044E001B146029146037240370430560D3E560E4
:10045E009409748094804036E4F560220561D3E5FA
:10046E00619409748094804025E4F561220562D37D
:10047E00E5629409748094804014E4F56222056369
:0F048E00D3E5639409748094804003E4F56322FE
:10058700E55714602D14605D1460651460732404CE
:100597006003020642E554700A7554017FE87E0342
:1005A700020EF6E4F554C2847F207E03120EF6D2C3
:1005B7008422E55B14601314601914601F24037010
:1005C7007A1560E560F47073804D1561E561F4702C
:1005D7006A804F1562E562F4706180511563E563C7
:1005E700F4705880531555E555F4704F75556322CF
:1005F700156FC3E56F940174809480503E756F0941
:1006070022E55B14601514601D1460252403702B0C
:100617001560E560F47024756009221561E561F4E1
:100627007019756109221562E562F4700E75620929
:0C063700221563E563F47003756309226B
:100D4600E55724FE600D14601914601E2403701DFF
:100D560002079EE555F404249FF51B120E64755791
:0E0D66000422E4F557AF6F020FBF120DF42206
:10079E00AF5C120FEFAF5D120FEFAF5E120FEFAF48
:1007AE005F120FEFE5606408702AE561640870243B
:1007BE00E5626408701EE563640870187F207E038E
:1007CE00120EF6755704756001756101756201753B
:1007DE006301804AE560655C7024E561B55D1FE5E7
:1007EE0062B55E1AE563B55F15AD327F68120E8B8A
:1007FE00120F577F207E03120EF675570222AD346C
:10080E007F68120E8B120F577F207E03120EF67525
:10081E005701756001756102756203756304E4F535
:02082E005B224B
:100DF40085605C85615D85625E85635F120E647FDC
:100E04002C7E01120EF6E4F55775600175610275CA
:060E140062037563042275
:100F5700AD257F6A120E8BAD257F6C120E8BAD25EA
:050F67007F6E020E8BFD
:100C7C00AD267F68120E8BAD2F7F6A120E8BE55559
:100C8C0075F06484E5F075F00A842425F8E6FD7FA0
:100C9C006C120E8BE55575F00A84742525F0F8E678
:060CAC00FD7F6E020E8BBD
:100D1700756F02755550755C01755D02755E0375DB
:100D27005F04120E64AF6F120FBFE4F564F565F54B
:0F0D37006AF56BC2847F587E02120EF6D28422B8
:100B9600120F6C7F49120BD2120DA0E4F511C3E5BA
:100BA60011940874809480501AD2C3E51225E0F59A
:100BB6001230C20205127F0A7E00120F41C2C3051F
:0B0BC6001180DB120DA0120F88AF128F
:010BD1002201
:10064300120B968F10E51024B1603924F8603A2418
:10065300F86040241860030206DCAF577E00EF7099
:10066300057557018026EF64014E6006EF64044E62
:10067300701A055BD3E55B940374809480400DE4AA
:10068300F55B80081203AE80031205878510587F3F
:100693002C8017851058E55A14601414603824020E
:1006A3007056E4F556755A017FF47E01020EF6E5A5
:1006B30056640A700AE55A6401703D755A02227F36
:1006C3002C7E01120EF605567FB87E221208BC7FDF
:1006D300B87E220206FC020D17E4F55AF556E558DA
:1006E300645F7014AF6BAE6A1208BC120D467F2CA8
:0806F3007E01120EF6E4F55839
:0106FB0022DC
:050AE200C101011B3CF5
:100EDB0043BA8090FEA8743FF053BA7F43BC805353
:0B0EEB00BCF0EF540F42DE43DE20227B
:100D740053BCF0EF42BC43BC40000000E5BC30E58E
:100D8400FB53BCDFAFBDEFFEACBEECFBEBFFA80535
:0B0D9400088005CEC313CE13D8F9FF72
:010D9F002231
:09023900E5716401600302039603
:10024200FDFF120D748E108F11AF1B7E00D3E511CE
:100252009FE5109E400D20010AD2010565E56570FB
:10026200020564D3E5119FE5109E500302035CE58D
:100272001A94E8E519940340030203AD051AE51A3E
:1002820070020519E4F51CF51DE5119FE5109E406D
:1002920016E51194C8E5109400500CC285E554602F
:1002A200030203ADC28422D3E51194C8E510940081
:1002B2004018E5119490E5109401500EC285C28653
:1002C200E55460030203ADC28422D3E5119490E5A4
:1002D200109401401AE5119458E51094025010C28E
:1002E20085C286C287E55460030203ADC28422D36D
:1002F200E5119458E5109402401CE5119420E51094
:1003020094035012C285C286C287C294E554600328
:100312000203ADC28422D3E5119420E51094034078
:100322001BE51194E8E51094035011C285C286C200
:1003320087C294C295E5547072C28422D3E51194A7
:10034200E8E51094034064C285C286C287C294C2A3
:1003520095C296E5547054C28422051DE51D7002B3
:10036200051C051AE51A70020519D394E8E51994DB
:10037200034038D3E51D9490E51C9401402DE4F52B
:100382001CF51D120FCCD284E4F519F51A7FE87E14
:0403920003020EF65E
:10039600E5717013F519F51AF51CF51DF51EF51F17
:0803A600C201120FCCD2842227
:0D0FCC00D285D286D287D294D295D29622B9
:100F290075985075D7CC75D6FF758E15E4F542F5D1
:080F390041C202D2ACD2AF228A
:080FEF002002FDD2028F9922BD
:100E1A008B6C8A6D896EAB6CAA6DA96E12094160E2
:100E2A0013056EE56E7002056D14F9120941FF1281
:050E3A000FEF80E22231
:020FA400AC0699
:0C0FA600AB07AF04120FEFAF03020FEF18
:03002300020E3F8B
:100E3F00C0E0C0D075D008309904C299C202309872
:100E4F000FC298AF42054274432FF8A69953420F31
:050E5F00D0D0D0E0320C
:060AE70001710001720024
:100CB20030C00320CC0FE571700B757101056BE537
:100CC2006B7002056A30C01B30CC18E5716401708C
:100CD200120572D3E5729464748094804005E4F541
:040CE20072F5712214
:03000000020830C3
:0C083000787FE4F6D8FD7581720208772D
:10094100BB010689828A83E0225002E722BBFE02B4
:09095100E32289828A83E49322E7
:10095A00BC000BBE0029EF8DF084FFADF022E4CC81
:10096A00F875F008EF2FFFEE33FEEC33FCEE9DEC4A
:10097A00984005FCEE9DFE0FD5F0E9E4CEFD22ED90
:10098A00F8F5F0EE8420D21CFEADF075F008EF2FDA
:10099A00FFED33FD4007985006D5F0F222C398FDCB
:0509AA000FD5F0EA2268
:10083C00020B52E493A3F8E493A34003F68001F275
:10084C0008DFF48029E493A3F85407240CC8C333BD
:10085C00C4540F4420C8834004F456800146F6DF8C
:10086C00E4800B0102040810204080900A86E47E8C
:10087C00019360BCA3FF543F30E509541FFEE49381
:10088C00A360010ECF54C025E060A840B8E493A348
:10089C00FAE493A3F8E493A3C8C582C8CAC583CA73
:1008AC00F0A3C8C582C8CAC583CADFE9DEE780BE2B
:010AED000008
:00000001FF
