:100C920075930075940075910075920075950075B5
:100CA200960075B10075B20075B30075B40075C9D0
:100CB2000075CA0075CB0075CC0075E10075E200C5
:010CC200220F
:100BF000120C927F06120F767F06120F8112095B8C
:100C0000E4FF120E86E4F557120ED4120A9A120966
:100C1000C812060CE55770F6120AFE120026120CD6
:060C20002612023980E8F3
:100A9A00E4F510F511C2857FE87E03120EA1D28516
:100AAA00C2867FE87E03120EA1D286C2877FE87EC5
:100ABA0003120EA1D287C2947FE87E03120EA1D23E
:100ACA0094C2957FE87E03120EA1D295C2967FE862
:100ADA007E03120EA1D2960511E51170020510C30C
:100AEA009403E510940040ADC2847FF47E01120E97
:030AFA00A1D28402
:010AFD0022D6
:100EA100EF4E60157D087C07ED1DAA0470011C4AF8
:090EB10070F6EF1F70EA1E80E7E5
:010EBA002215
:100EEC00D3EF9400EE9400400C0000000000EF1FC4
:060EFC0070EE1E80EB22E7
:100A320013253F065B4F666D7D077F6F40777C39DC
:100A42005E797176000421686A6C6E083911213171
:050A520041516171013A
:0E0F1700D2C3D2C27F057E00120EECC2C222EF
:0E0F2500D2B7D2C17F057E00120EECC2C122EF
:100D4B00751701D2C37F057E00120EECC2C330C2F1
:100D5B000FD3E5179464748094805004051780EECC
:090D6B007F057E00120EECC2B7F8
:010D7400225C
:100D7500751701D2B77F057E00120EECC2B730C1E0
:100D85000FD3E5179464748094805004051780EEA2
:090D95007F057E00120EECC2B7CE
:010D9E002232
:0E0F3300D2C3C2C27F057E00120EECD2C222D3
:0E0F4100D2B7C2C17F057E00120EECD2C122D3
:020B7C008F17D1
:100B7E00C2C37F017E00120EECE4F518C3E5189493
:100B8E0008748094805020E51725E0F51792C2C2B4
:100B9E00C37F057E00120EECD2C37F057E00120EBF
:070BAE00ECC2C3051880D55D
:010BB500221D
:020BB6008F1797
:100BB800C2B77F017E00120EECE4F518C3E5189465
:100BC80008748094805020E51725E0F51792C1C27B
:100BD800B77F057E00120EECD2B77F057E00120E9D
:070BE800ECC2B7051880D52F
:010BEF0022E3
:03000300F8E6FD1F
:100006008F158D16120F17AF15120B7C120D4BAFF5
:0A00160016120B7C120D4B020F3383
:030E3300F8E6FDE1
:100E36008F158D16120F25AF15120BB6120D75AF45
:0A0E460016120BB6120D75020F41D3
:0407E300AB07AA06B0
:1007E7007C277D101209067E037FE8CFCDCFCECCC4
:1007F700CE1209068F117C037DE8AF03AE02120902
:10080700067E007F64CFCDCFCECCCE1209068F12E5
:100817007C007D64AF03AE021209067E007F0ACF1B
:10082700CDCFCECCCE1209068F13AE02AF037C001C
:100837007D0A1209068D14742525117F681200039D
:10084700742525127F6A12000374252513F8E6FD27
:100857007F6C12000674252514F8E6FD7F6E0200F2
:01086700068A
:04086800AB07AA062A
:10086C007C277D101209067E037FE8CFCDCFCECC3E
:10087C00CE1209068F117C037DE8AF03AE0212097C
:10088C00067E007F64CFCDCFCECCCE1209068F1260
:10089C007C007D64AF03AE021209067E007F0ACF96
:1008AC00CDCFCECCCE1209068F13AE02AF037C0097
:1008BC007D0A1209068D14742525117F68120E33DA
:1008CC00742525127F6A120E3374252513F8E6FD64
:1008DC007F6C120E3674252514F8E6FD7F6E020E21
:0108EC0036D5
:0B0F760074382FF8E6FD7F48020006EB
:0B0F810074382FF8E6FD7F48020E36A2
:030A5700011C027D
:10002600E4F59575960343F10475BA8090FFA2F046
:10003600E51C14B40900400302022B90004F75F032
:1000460003A4C58325F0C5837302006A02009B02E0
:1000560000D0020102020134020166020197020188
:10006600C80201F990FFA0740EF0A3746CF090FF23
:10007600B27407F0A37420F090FFB0740AF0A37472
:10008600BEF090FFBAE4F0A3F090FFB87403F0A3BB
:10009600749002022790FFA0740DF0A374C6F0902E
:1000A600FFB27406F0A374D9F090FFB0740AF0A3FF
:1000B600744FF090FFBAE4F0A3F090FFB87403F029
:1000C600A37470F0751D0102022B90FFA0740DF051
:1000D600A37431F090FFB27406F0A37499F090FF08
:1000E600B07409F0A374F0F090FFBAE4F0A3F090B6
:1000F600FFB87403F0A3744AF002022B90FFA074B9
:100106000CF0A374A6F090FFB27406F0A37449F045
:1001160090FFB07409F0A37480F090FFBAE4F0A3E6
:10012600F090FFB87403F0A3742AF002022B90FF3C
:10013600A0740CF0A37426F090FFB27406F0A374BA
:1001460019F090FFB07409F0A37420F090FFBAE4A0
:10015600F0A3F090FFB87403F0A3740AF002022B28
:1001660090FFA0740BF0A374B5F090FFB27405F085
:10017600A374E0F090FFB07408F0A374CAF090FF87
:10018600BAE4F0A3F090FFB87402F0A374F0020290
:100196002790FFA0740BF0A3744BF090FFB2740588
:1001A600F0A374AEF090FFB07408F0A3746AF090F8
:1001B600FFBAE4F0A3F090FFB87402F0A374D0F095
:1001C600806390FFA0740AF0A374E4F090FFB27409
:1001D60005F0A3748EF090FFB07408F0A3743AF0A3
:1001E60090FFBAE4F0A3F090FFB87402F0A374C0D5
:1001F600F0803290FFA0740AF0A37485F090FFB2ED
:100206007405F0A3744EF090FFB07407F0A374F079
:10021600F090FFBAE4F0A3F090FFB87402F0A37474
:10022600B0F0E4F51D90FFB47480F090FFBCF0E4EC
:03023600F5BA22F4
:100C2600E4F5B175B20843F10875BA8090FC02F09C
:100C360090FC007402F0A37474F090FC287401F028
:100C4600A3E4F0A37402F0A37440F0A37480F0E46C
:060C5600F5BA75F711224A
:0A0A5A00C180026A0000026400007F
:0D0F4F00E4F5C7F5C5F5C675C380F5C422ED
:100E500075C78075F51875C5018FC48EC375C65AE0
:0B0E600075C6A5000000AFC2020F4FD6
:100E6B0075C78075F51875C5028FC48EC38DC27595
:0B0E7B00C65A75C6A5000000020F4F0C
:100EBB0075C78075F51875C5038FC48EC375C65A73
:090ECB0075C6A5000000020F4FDE
:10095B007F017E00120E508F5C7F02120E508F5D56
:10096B007F03120E508F5E7F04120E508F5F7F0538
:10097B00120E508F557F017E02120E508F1CD3E545
:10098B00559464748094804003755550E555F40478
:10099B00249FF56CD3E51C940974809480400375F7
:1009AB001C02D3E55C940974809480400F755C0144
:0D09BB00755D02755E03755F04120E0F225C
:100E0F00E4FFFE120EBBAD5C0F120E6BAD5D0F1249
:100E1F000E6BAD5E0F120E6BAD5F0F120E6BAD55FD
:040E2F000F020E6B35
:0D0F5C00AD077F007E02120EBB0F020E6B70
:100A6400015700015B0001530001590001540001CA
:100A74005A00015C00015D00015E00015F0001603D
:0A0A84000101610201620301630435
:1009C800E55714602214602114602514601924046A
:1009D8007057E4F55BE55A7050AF6BAE6A1207E3E7
:1009E800AF65AE64020868803D120C5CE4F55B22DA
:1009F800AD357F68120E36AD2F7F6A120E36E51CB4
:100A080075F06484E5F075F00A842425F8E6FD7F26
:100A18006C120E36E51C75F00A84742525F0F8E68C
:0A0A2800FD7F6E020E361205222239
:100522000559AF597E00C3EF9478748094805003CC
:10053200755301D3EF9478EE648094804003E4F520
:1005420053EF64F04E7002F55974252560F8E6FD0C
:100552007F68120E3674252561F8E6FD7F6A120E59
:100562003674252562F8E6FD7F6C120E3674252559
:1005720063F8E6FD7F6E120E36E55B14602A1460A6
:10058200471460642403600302060BE55314600BF6
:1005920004707674252560F8E6800874252560F8D5
:1005A200E64480FD7F68805EE55314600E04705956
:1005B20074252561F8E6FD7F6A804B74252561F874
:1005C200E64480FD7F6A803EE55314600E04703974
:1005D20074252562F8E6FD7F6C802B74252562F870
:1005E200E64480FD7F6C801EE55314600E04701992
:1005F20074252563F8E6FD7F6E800B74252563F86C
:0A060200E64480FD7F6E120E3622E2
:10043300E55714601E1460721470030204BE147036
:10044300030204CF24046003020521755703AF1C84
:10045300020F8CE55B14601F14602E14603D2403AF
:1004630060030205210560D3E560940974809480DC
:10047300500302052180710561D3E56194097480FD
:100483009480500302052180700562D3E5629409CC
:10049300748094805003020521806F0563D3E56364
:1004A300940974809480407680710555D3E5559402
:1004B3006474809480406775550122051CD3E51C44
:1004C3009409748094804056751C0122E55B146086
:1004D3001B146029146037240370430560D3E5605F
:1004E3009409748094804036E4F560220561D3E575
:1004F300619409748094804025E4F561220562D3F8
:10050300E5629409748094804014E4F562220563E3
:0F051300D3E5639409748094804003E4F5632278
:10034200E5571460681470030203E2147003020399
:10035200ED1470030203F824046003020432E5542E
:10036200700F755401C2967FE87E03120EA1D296D9
:1003720022E4F554C284AE64AF65FC7D0A1209061C
:1003820074252DF8E64480FD7F6E120E367F207EA6
:1003920003120EA1AE64AF657C007D0A12090674D9
:1003A200252DF8E6FD7F6E120E36D28422E55B140F
:1003B200601314601914601F240370741560E560E3
:1003C200F4706D80471561E561F4706480491562CF
:1003D200E562F4705B804B1563E563F47052804D07
:1003E2001555E555F4704975556322151CE51CF445
:1003F200703E751C0922E55B14601514601D1460C3
:10040200252403702B1560E560F4702475600922C1
:100412001561E561F47019756109221562E562F4EE
:10042200700E756209221563E563F4700375630942
:0104320022A7
:100CF200E55724FE600D14601814601D2403701C57
:100D02000206C5E4F557E555F404249FF56C020E7E
:0D0D12000FE4F557AF1C020F5C120D9F227D
:1006C500AF5C120F8CAF5D120F8CAF5E120F8CAF4B
:1006D5005F120F8CE5606408702AE5616408702478
:1006E500E5626408701EE563640870187F207E0368
:1006F500120EA1755704756001756101756201756A
:100705006301804AE560655C7024E561B55D1FE5C0
:1007150062B55E1AE563B55F15AD327F68120E36B8
:10072500120F027F207E03120EA175570222AD34EF
:100735007F68120E36120F027F207E03120EA175FE
:100745005701756001756102756203756304E4F50F
:020755005B2225
:100D9F0085605C85615D85625E85635F120E0F7F86
:100DAF002C7E01120EA1E4F5577560017561027575
:060DBF00620375630422CB
:100F0200AD257F6A120E36AD257F6C120E36AD25E9
:050F12007F6E020E36A7
:100C5C00AD267F68120E36AD2F7F6A120E36E55523
:100C6C0075F06484E5F075F00A842425F8E6FD7FC0
:100C7C006C120E36E55575F00A84742525F0F8E6ED
:060C8C00FD7F6E020E3632
:100CC300751C0275555A755C01755D02755E037579
:100CD3005F04120E0FAF1C120F5CE4F564F565F5AB
:0F0CE3006AF56BC2847F587E02120EA1D2842262
:100B4000120F177F49120B7C120D4BE4F511C3E510
:100B500011940874809480501AD2C3E51225E0F5F0
:100B60001230C20205127F0A7E00120EECC2C305CB
:0B0B70001180DB120D4B120F33AF128F
:010B7B002257
:10060C00120B408F10E51024B1603924F8603A24A5
:10061C00F86040241860030206A5AF577E00EF7007
:10062C00057557018026EF64014E6006EF64044E99
:10063C00701A055BD3E55B940374809480400DE4E1
:10064C00F55B800812043380031203428510587F37
:10065C002C8017851058E55A146014146038240245
:10066C007056E4F556755A017FF47E01020EA1E531
:10067C0056640A700AE55A6401703D755A02227F6D
:10068C002C7E01120EA105567FB87E221207E37F45
:10069C00B87E22020868020CC3E4F55AF556E558F8
:1006AC00645F7014AF6BAE6A1207E3120CF27F2C0E
:0806BC007E01120EA1E4F558C5
:0106C4002213
:050A8E00C101016C3CF8
:100E860043BA8090FEA8743FF053BA7F43BC8053A8
:0B0E9600BCF0EF540F42DE43DE2022D0
:100D1F0053BCF0EF42BC43BC40000000E5BC30E5E3
:100D2F00FB53BCDFAFBDEFFEACBEECFBEBFFA8058A
:0B0D3F00088005CEC313CE13D8F9FFC7
:010D4A002286
:09023900E51E64016003020336B6
:10024200FDFF120D1F8E108F11D3E511956CE51075
:100252009400400D20010AD2010565E56570020592
:1002620064AF11120F8CD3E511956CE51094004028
:1002720016E51194C8E5109400500CC285E554604F
:1002820003020341C28422D3E51194C8E51094000D
:100292004018E5119490E5109401500EC285C28673
:1002A200E5546003020341C28422D3E5119490E530
:1002B2001094014017E5119458E5109402500DC2B4
:1002C20085C286C287E5547076C28422D3E5119432
:1002D20058E51094024019E5119420E5109403505A
:1002E2000FC285C286C287C294E5547052C284226C
:1002F200D3E5119420E5109403401BE51194E8E541
:100302001094035011C285C286C287C294C295E579
:1003120054702CC28422D3E51194E8E51094034072
:100322001EC285C286C287C294C295C296E5547027
:030332000EC28474
:0D03350022E51E7007C201120F69D284225A
:0D0F6900D285D286D287D294D295D296221C
:100ED40075985075D7CC75D6FF758E15E4F542F527
:080EE40041C202D2ACD2AF22E0
:080F8C002002FDD2028F992220
:100DC5008B198A1A891BAB19AA1AA91B1208ED607F
:100DD50013051BE51B7002051A14F91208EDFF1225
:050DE5000F8C80E222EA
:03002300020DEAE1
:100DEA00C0E0C0D075D008309904C299C2023098C8
:100DFA000FC298AF42054274432FF8A69953420F87
:050E0A00D0D0D0E03261
:060A9300011E00011F001E
:100AFE0030C00320CC16E51E7012A2CC33FF120FAD
:100B0E008C751E01056BE56B7002056A30C02230D4
:100B1E00CC1FE51E64017019A2CC33FF120F8C0599
:100B2E001FD3E51F9478748094804005E4F51FF57B
:020B3E001E2275
:030000000207579D
:0C075700787FE4F6D8FD75816C02079EE7
:1008ED00BB010689828A83E0225002E722BBFE0209
:0908FD00E32289828A83E493223C
:10090600BC000BBE0029EF8DF084FFADF022E4CCD5
:10091600F875F008EF2FFFEE33FEEC33FCEE9DEC9E
:10092600984005FCEE9DFE0FD5F0E9E4CEFD22EDE4
:10093600F8F5F0EE8420D21CFEADF075F008EF2F2E
:10094600FFED33FD4007985006D5F0F222C398FD1F
:050956000FD5F0EA22BC
:10076300020BF0E493A3F8E493A34003F68001F2B1
:1007730008DFF48029E493A3F85407240CC8C33397
:10078300C4540F4420C8834004F456800146F6DF66
:10079300E4800B0102040810204080900A32E47EBA
:1007A300019360BCA3FF543F30E509541FFEE4935B
:1007B300A360010ECF54C025E060A840B8E493A322
:1007C300FAE493A3F8E493A3C8C582C8CAC583CA4D
:1007D300F0A3C8C582C8CAC583CADFE9DEE780BE05
:010A9900005C
:00000001FF
