:100B670075930075940075910075920075950075E1
:100B7700960075B10075B20075B30075B40075C9FC
:100B87000075CA0075CB0075CC0075E10075E200F1
:010B9700223B
:100C1800120B677F06120DD97F06120DE41209D751
:100C2800E4FF120D1BE4F50F120C411208D012025A
:090C38002B120AC9120B3580EFE2
:100D3600EF4E60157D087C07ED1DAA0470011C4A64
:090D460070F6EF1F70EA1E80E751
:010D4F002281
:100D6900D3EF9400EE9400400C0000000000EF1F48
:060D790070EE1E80EB226B
:1009330013253F065B4F666D7D077F6F40777C39DC
:100943005E797176000421686A6C6E083911213171
:0509530041516171013A
:0E0D9400D2C3D2C27F057E00120D69C2C222F8
:0E0DA200D2B7D2C17F057E00120D69C2C122F8
:100BC400754B01D2C37F057E00120D69C2C330C2CA
:100BD4000FD3E54B9464748094805004054B80EEED
:090BE4007F057E00120D69C2B705
:010BED0022E5
:100BEE00754B01D2B77F057E00120D69C2B730C1B9
:100BFE000FD3E54B9464748094805004054B80EEC3
:090C0E007F057E00120D69C2B7DA
:010C170022BA
:0E0DB000D2C3C2C27F057E00120D69D2C222DC
:0E0DBE00D2B7C2C17F057E00120D69D2C122DC
:020A55008F4BC5
:100A5700C2C37F017E00120D69E4F54CC3E54C94D7
:100A670008748094805020E54B25E0F54B92C2C274
:100A7700C37F057E00120D69D2C37F057E00120D6C
:070A870069C2C3054C80D5D4
:010A8E002245
:020A8F008F4B8B
:100A9100C2B77F017E00120D69E4F54CC3E54C94A9
:100AA10008748094805020E54B25E0F54B92C1C23B
:100AB100B77F057E00120D69D2B77F057E00120D4A
:070AC10069C2B7054C80D5A6
:010AC800220B
:030C8E00F8E6FD88
:100C91008F498D4A120D94AF49120A55120BC4AFF8
:0A0CA1004A120A55120BC4020DB0EE
:030CAB00F8E6FD6B
:100CAE008F498D4A120DA2AF49120A8F120BEEAF69
:0A0CBE004A120A8F120BEE020DBE5F
:04074A00AB07AA0649
:10074E007C277D101201C87E037FE8CFCDCFCECCA3
:10075E00CE1201C88F457C037DE8AF03AE021201B5
:10076E00C87E007F64CFCDCFCECCCE1201C88F46CF
:10077E007C007D64AF03AE021201C87E007F0ACFFB
:10078E00CDCFCECCCE1201C88F47AE02AF037C00C8
:10079E007D0A1201C88D48742525457F68120C8E7E
:1007AE00742525467F6A120C8E74252547F8E6FDC2
:1007BE007F6C120C9174252548F8E6FD7F6E020CB5
:0107CE009199
:0407CF00AB07AA06C4
:1007D3007C277D101201C87E037FE8CFCDCFCECC1E
:1007E300CE1201C88F457C037DE8AF03AE02120130
:1007F300C87E007F64CFCDCFCECCCE1201C88F464A
:100803007C007D64AF03AE021201C87E007F0ACF75
:10081300CDCFCECCCE1201C88F47AE02AF037C0042
:100823007D0A1201C88D48742525457F68120CABDB
:10083300742525467F6A120CAB74252547F8E6FD1F
:100843007F6C120CAE74252548F8E6FD7F6E020C12
:01085300AEF6
:0B0DD90074382FF8E6FD7F48020C91F3
:0B0DE40074382FF8E6FD7F48020CAECB
:03095800011C027D
:10022B00E4F59575960343F10475BA8090FFA2F03F
:10023B00E51C14B40900400302043090025475F01D
:10024B0003A4C58325F0C5837302026F0202A002CB
:10025B0002D502030702033902036B02039C02035C
:10026B00CD0203FE90FFA0740EF0A37464F090FF18
:10027B00B27407F0A37420F090FFB0740AF0A3746B
:10028B00BEF090FFBAE4F0A3F090FFB87403F0A3B4
:10029B00749002042C90FFA0740DF0A374C6F09020
:1002AB00FFB27406F0A374D9F090FFB0740AF0A3F8
:1002BB00744FF090FFBAE4F0A3F090FFB87403F022
:1002CB00A37470F0751D0102043090FFA0740DF043
:1002DB00A37431F090FFB27406F0A37499F090FF01
:1002EB00B07409F0A374F0F090FFBAE4F0A3F090AF
:1002FB00FFB87403F0A3744AF002043090FFA074AB
:10030B000CF0A374A6F090FFB27406F0A37449F03E
:10031B0090FFB07409F0A37480F090FFBAE4F0A3DF
:10032B00F090FFB87403F0A3742AF002043090FF2E
:10033B00A0740CF0A37426F090FFB27406F0A374B3
:10034B0019F090FFB07409F0A37420F090FFBAE499
:10035B00F0A3F090FFB87403F0A3740AF00204301A
:10036B0090FFA0740BF0A374B5F090FFB27405F07E
:10037B00A374E0F090FFB07408F0A374CAF090FF80
:10038B00BAE4F0A3F090FFB87402F0A374F0020487
:10039B002C90FFA0740BF0A3744BF090FFB274057C
:1003AB00F0A374AEF090FFB07408F0A3746AF090F1
:1003BB00FFBAE4F0A3F090FFB87402F0A374D0F08E
:1003CB00806390FFA0740AF0A374E4F090FFB27402
:1003DB0005F0A3748EF090FFB07408F0A3743AF09C
:1003EB0090FFBAE4F0A3F090FFB87402F0A374C0CE
:1003FB00F0803290FFA0740AF0A37485F090FFB2E6
:10040B007405F0A3744EF090FFB07407F0A374F072
:10041B00F090FFBAE4F0A3F090FFB87402F0A3746D
:10042B00B0F0E4F51D90FFB47480F090FFBCF0E4E5
:03043B00F5BA22ED
:100AC900E4F5B175B20843F10875BA8090FC02F0FB
:100AD90090FC007418F0A37480F090FC287401F065
:100AE900A3E4F0A3740CF0A374FFF0A37480F0E402
:060AF900F5BA75F71122A9
:02095B00C18059
:0D0DCC00E4F5C7F5C5F5C675C380F5C42272
:100CE50075C78075F51875C5018FC48EC375C65A4D
:0B0CF50075C6A5000000AFC2020DCCC8
:100D000075C78075F51875C5028FC48EC38DC27501
:0B0D1000C65A75C6A5000000020DCCFD
:100D500075C78075F51875C5038FC48EC375C65ADF
:090D600075C6A5000000020DCCCF
:1009D7007F017E00120CE58F117F02120CE58F124A
:1009E7007F03120CE58F137F04120CE58F147F052C
:1009F700120CE58F19E511F4700F751101751202CC
:100A0700751303751404120C6AE519F4700375194C
:020A17003C227F
:100C6A00E4FFFE120D50AD110F120D00AD120F125E
:100C7A000D00AD130F120D00AD140F120D00AD19BA
:040C8A000F020D0048
:10095D00010F00010E00020B0000021A0000010938
:10096D00000110000111000112000113000114001B
:10097D00011501011602011703011804010D0001F3
:02098D000A005E
:100C4100E50F14601714601614601124037019AFB6
:100C51001BAE1A1207CFE4F5080209948007120AA5
:090C6100FFE4F5082212043E2212
:10043E000510AF107E00C3EF947874809480500343
:10044E00750901D3EF9478EE648094804003E4F54F
:10045E0009EF64F04E7002F510E508600C74252566
:10046E0015F8E6FD7F68120CAEE5086401600C74A9
:10047E00252516F8E6FD7F6A120CAEE508640260CB
:10048E000C74252517F8E6FD7F6C120CAEE508649A
:10049E0003600C74252518F8E6FD7F6E120CAEE590
:1004AE000814602A14604714606424036003020574
:1004BE003DE50914600B04707674252515F8E68069
:1004CE000874252515F8E64480FD7F68805EE509F1
:1004DE0014600E04705974252516F8E6FD7F6A80A7
:1004EE004B74252516F8E64480FD7F6A803EE509AB
:1004FE0014600E04703974252517F8E6FD7F6C80A4
:10050E002B74252517F8E64480FD7F6C801EE509C7
:10051E0014600E04701974252518F8E6FD7F6E80A0
:10052E000B74252518F8E64480FD7F6E120CAE2262
:10053E00E50F1460271460781470030205CF2403AE
:10054E006003020621750D01051CD3E51C94097488
:10055E008094805003020621751C0122E508146068
:10056E001F14602E14603A24036003020621051541
:10057E00D3E5159409748094805003020621805DA2
:10058E000516D3E516940974809480500302062153
:10059E00805C0517D3E517940974809480407480AD
:1005AE005E0518D3E51894097480948040658060C8
:1005BE000519D3E51994637480948040567519011A
:1005CE0022E50814601B146029146037240370435D
:1005DE000515D3E5159409748094804036E4F5151D
:1005EE00220516D3E5169409748094804025E4F50F
:1005FE0016220517D3E5179409748094804014E4ED
:10060E00F517220518D3E5189409748094804003D9
:04061E00E4F51822C5
:10062200E50F14601E14604E14605624036003022A
:1006320006BD050AD3E50A940174809480407CE4E7
:10064200F50A22E50814601314601914601F2403CC
:1006520070691515E515F47062803C1516E516F4FF
:100662007059803E1517E517F4705080401518E553
:1006720018F4704780421519E519F4703E75196334
:1006820022E50814601514601D1460252403702BE4
:100692001515E515F47024751509221516E516F4DD
:1006A2007019751609221517E517F4700E751709DA
:0C06B200221518E518F4700375180922D1
:100CC800E50F24FE600A14600E2402700F02085417
:0D0CD800750F03750E0222E4F50FF50E22D4
:10085400E51564087025E5166408701FE51764083B
:100864007019E51864087013AD327F68120CAE126B
:100874000D7F7F207E03120D368044E515651170CF
:1008840027E516B51222E517B5131DE518B514189A
:10089400AD327F68120CAE120D7F7F207E03120DE5
:1008A40036750F02750E0122AD347F68120CAE123C
:1008B4000D7F7F207E03120D36750F01E4F50E7552
:0C08C40015017516027517037518042243
:100D7F00AD257F6A120CAEAD257F6C120CAEAD2582
:050D8F007F6E020CAEB6
:100AFF00AD267F68120CAEAD2F7F6A120CAEE519D2
:100B0F0075F06484E5F075F00A842425F8E6FD7F1E
:100B1F006C120CAEE51975F00A84742525F0F8E611
:060B2F00FD7F6E020CAE1A
:10099400E50D14703DAD357F68120C91AD2F7F6A63
:1009A400120C91E51C75F06484E5F075F00A84245A
:1009B40025F8E6FD7F6C120C91E51C75F00A847431
:1009C4002525F0F8E6FD7F6E120C917FE87E031278
:0309D4000D3622BB
:100A1900120D947F49120A55120BC4E4F541C3E53E
:100A290041940874809480501AD2C3E54225E0F5B8
:100A39004230C20205427F0A7E00120D69C2C30517
:0B0A49004180DB120BC4120DB0AF4265
:010A5400227F
:1008D000120A19EF24B1603824F8603C24F860450E
:1008E0002418704BE50F700AE50E7006750F017540
:1008F0000803AF0FEF64016005EF6403702A050879
:10090000D3E508940374809480401DE4F5088018B2
:1009100012053E750D0180101206227F2C7E0112F9
:100920000D36C28722120CC87F2C7E01020D36E4E0
:02093000F50DC3
:0109320022A2
:04098F00021E000044
:100D1B0043BA8090FEA8743FF053BA7F43BC805314
:0B0D2B00BCF0EF540F42DE43DE20223C
:100B980053BCF0EF42BC43BC400000E5BC30E5FB71
:100BA80053BCDF00AFBDEFFEACBEECFBEBFFA8050E
:0B0BB800088005CEC313CE13D8F9FF50
:010BC300220F
:040DEF00E4F5BC2249
:100B3500E4FDFF120B988E1E8F1F75440075432030
:100B45007542997541401207CFAC1EAD1FE41201E5
:100B55000EAB44AA43A942A8411200031201470261
:020B6500074A3D
:10000300EC4D6011E8497017ED33EC3304600DE4F7
:10001300FCFFFEFD22E933E8330470F80201B3125A
:10002300017E58046009E4CC24815006285009025B
:1000330001BD2840030201BAC0E0EB4A7044B98015
:1000430006D0E0FB0201A9EF4E701CBD8008EBFF58
:10005300EAFEE9FD80EBE98DF0A4FEE5F00200EC99
:10006300E9CDF9EAFEEBFFEF89F0A4FCE5F0CE89D8
:10007300F0A42EFFE435F0CD89F0A42DFEE435F095
:100083008067EF4E7005BD80D780C3EF8BF0A4ACC3
:10009300F0EE8BF0A42CFCE435F0F8EF8AF0A42CFE
:1000A300E5F038FCE433CB8DF0A42CFCE5F03BF811
:1000B300EE8AF0A42CFCE5F038F8E433CF89F0A401
:1000C3002CFCE5F038CF3400CE89F0A42FFFE5F007
:1000D3003EFEE433C98DF0A42EFEE5F039CD8AF05F
:1000E300A42FFFE5F03EFEE43DFD33D0E0FB5007D7
:1000F3000BBB000F0201BDEC2CFCEF33FFEE33FE14
:06010300ED33FD02019541
:1001090075F020800E75F010800575F0087D007E71
:10011900007F003392D530D50312021DEC33401015
:10012900EF33FFEE33FEED33FDEC33FCD5F0ED227A
:0E013900E5F0247EA2D513CC92E7CDCEFF22B6
:10014700EDD2E7CD33EC3392D524814006E4FFFEB0
:10015700FDFC22FCE4CFCECDCC24E0501174FF800F
:10016700EDC3CC13CCCD13CDCE13CECF13CF0470AC
:07017700F030D5DE02021D8D
:10017E00E9D2E7C933E833F892D5EDD2E7CD33ECC7
:07018E0033FC5002B2D52240
:10019500EC30E7100FBF000C0EBE00080DBD0004CB
:1001A5000BEB6014A2D5EB13FCED92E7FD2274FF77
:1001B500FCFDFEFF22E480F8A2D574FF13FC7D80D0
:0301C500E480EFE4
:030000000206BE37
:0C06BE00787FE4F6D8FD75814C0207053A
:1001C800BC000BBE0029EF8DF084FFADF022E4CC1B
:1001D800F875F008EF2FFFEE33FEEC33FCEE9DECE4
:1001E800984005FCEE9DFE0FD5F0E9E4CEFD22ED2A
:1001F800F8F5F0EE8420D21CFEADF075F008EF2F74
:10020800FFED33FD4007985006D5F0F222C398FD64
:050218000FD5F0EA2201
:0E021D00C3E49FFFE49EFEE49DFDE49CFC22F2
:1006CA00020C18E493A3F8E493A34003F68001F222
:1006DA0008DFF48029E493A3F85407240CC8C33331
:1006EA00C4540F4420C8834004F456800146F6DF00
:1006FA00E4800B0102040810204080900933E47E54
:10070A00019360BCA3FF543F30E509541FFEE493F4
:10071A00A360010ECF54C025E060A840B8E493A3BB
:10072A00FAE493A3F8E493A3C8C582C8CAC583CAE6
:10073A00F0A3C8C582C8CAC583CADFE9DEE780BE9E
:010993000063
:00000001FF
