:100BA40075930075940075910075920075950075A4
:100BB400960075B10075B20075B30075B40075C9BF
:100BC4000075CA0075CB0075CC0075E10075E200B4
:010BD40022FE
:100B7100120BA47F06120E2C7F06120E371208707C
:100B8100E4FF120D3CE4F513120D8A1208DD120A7E
:100B910022E51370F6120B3D120026120AD1120241
:030BA1003980E8B0
:100D5700EF4E60157D087C07ED1DAA0470011C4A43
:090D670070F6EF1F70EA1E80E730
:010D70002260
:100DA200D3EF9400EE9400400C0000000000EF1F0F
:060DB20070EE1E80EB2232
:1009430013253F065B4F666D7D077F6F40777C39CC
:100953005E797176000421686A6C6E083911213161
:0509630041516171012A
:0E0DCD00D2C3D2C27F057E00120DA2C2C22286
:0E0DDB00D2B7D2C17F057E00120DA2C2C12286
:100C0100756101D2C37F057E00120DA2C2C330C23D
:100C11000FD3E5619464748094805004056180EE83
:090C21007F057E00120DA2C2B78E
:010C2A0022A7
:100C2B00756101D2B77F057E00120DA2C2B730C12C
:100C3B000FD3E5619464748094805004056180EE59
:090C4B007F057E00120DA2C2B764
:010C5400227D
:0E0DE900D2C3C2C27F057E00120DA2D2C2226A
:0E0DF700D2B7C2C17F057E00120DA2D2C1226A
:020A5D008F61A7
:100A5F00C2C37F017E00120DA2E4F562C3E562946A
:100A6F0008748094805020E56125E0F56192C2C240
:100A7F00C37F057E00120DA2D2C37F057E00120D2B
:070A8F00A2C2C3056280D57D
:010A9600223D
:020A97008F616D
:100A9900C2B77F017E00120DA2E4F562C3E562943C
:100AA90008748094805020E56125E0F56192C1C207
:100AB900B77F057E00120DA2D2B77F057E00120D09
:070AC900A2C2B7056280D54F
:010AD0002203
:03000300F8E6FD1F
:100006008F5F8D60120DCDAF5F120A5D120C01AFCE
:0A00160060120A5D120C01020DE9F0
:030CE900F8E6FD2D
:100CEC008F5F8D60120DDBAF5F120A97120C2BAF6A
:0A0CFC0060120A97120C2B020DF78C
:0406F800AB07AA069C
:1006FC007C277D1012081B7E037FE8CFCDCFCECC9C
:10070C00CE12081B8F5B7C037DE8AF03AE02120890
:10071C001B7E007F64CFCDCFCECCCE12081B8F5C5E
:10072C007C007D64AF03AE0212081B7E007F0ACFF3
:10073C00CDCFCECCCE12081B8F5DAE02AF037C00AA
:10074C007D0A12081B8D5E7425255B7F68120003E1
:10075C007425255C7F6A1200037425255DF8E6FD7F
:10076C007F6C1200067425255EF8E6FD7F6E020094
:01077C000676
:04077D00AB07AA0616
:100781007C277D1012081B7E037FE8CFCDCFCECC16
:10079100CE12081B8F5B7C037DE8AF03AE0212080B
:1007A1001B7E007F64CFCDCFCECCCE12081B8F5CD9
:1007B1007C007D64AF03AE0212081B7E007F0ACF6E
:1007C100CDCFCECCCE12081B8F5DAE02AF037C0025
:1007D1007D0A12081B8D5E7425255B7F68120CE96A
:1007E1007425255C7F6A120CE97425255DF8E6FD08
:1007F1007F6C120CEC7425255EF8E6FD7F6E020C11
:01080100EC0A
:0B0E2C0074382FF8E6FD7F4802000636
:0B0E370074382FF8E6FD7F48020CEC39
:03096800011E026B
:10002600E4F59575960343F10475BA8090FFA2F046
:10003600E51E14B40900400302022B90004F75F030
:1000460003A4C58325F0C5837302006A02009B02E0
:1000560000D0020102020134020166020197020188
:10006600C80201F990FFA0740EF0A3746CF090FF23
:10007600B27407F0A37420F090FFB0740AF0A37472
:10008600BEF090FFBAE4F0A3F090FFB87403F0A3BB
:10009600749002022790FFA0740DF0A374C6F0902E
:1000A600FFB27406F0A374D9F090FFB0740AF0A3FF
:1000B600744FF090FFBAE4F0A3F090FFB87403F029
:1000C600A37470F0751F0102022B90FFA0740DF04F
:1000D600A37431F090FFB27406F0A37499F090FF08
:1000E600B07409F0A374F0F090FFBAE4F0A3F090B6
:1000F600FFB87403F0A3744AF002022B90FFA074B9
:100106000CF0A374A6F090FFB27406F0A37449F045
:1001160090FFB07409F0A37480F090FFBAE4F0A3E6
:10012600F090FFB87403F0A3742AF002022B90FF3C
:10013600A0740CF0A37426F090FFB27406F0A374BA
:1001460019F090FFB07409F0A37420F090FFBAE4A0
:10015600F0A3F090FFB87403F0A3740AF002022B28
:1001660090FFA0740BF0A374B5F090FFB27405F085
:10017600A374E0F090FFB07408F0A374CAF090FF87
:10018600BAE4F0A3F090FFB87402F0A374F0020290
:100196002790FFA0740BF0A3744BF090FFB2740588
:1001A600F0A374AEF090FFB07408F0A3746AF090F8
:1001B600FFBAE4F0A3F090FFB87402F0A374D0F095
:1001C600806390FFA0740AF0A374E4F090FFB27409
:1001D60005F0A3748EF090FFB07408F0A3743AF0A3
:1001E60090FFBAE4F0A3F090FFB87402F0A374C0D5
:1001F600F0803290FFA0740AF0A37485F090FFB2ED
:100206007405F0A3744EF090FFB07407F0A374F079
:10021600F090FFBAE4F0A3F090FFB87402F0A37474
:10022600B0F0E4F51F90FFB47480F090FFBCF0E4EA
:03023600F5BA22F4
:100AD100E4F5B175B20843F10875BA8090FC02F0F3
:100AE10090FC007402F0A37474F090FC287401F07F
:100AF100A3E4F0A37402F0A37440F0A37480F0E4C3
:060B0100F5BA75F71122A0
:0A096B00C180025900000253000091
:0D0E0500E4F5C7F5C5F5C675C380F5C42238
:100D060075C78075F51875C5018FC48EC375C65A2B
:0B0D160075C6A5000000AFC2020E056C
:100D210075C78075F51875C5028FC48EC38DC275E0
:0B0D3100C65A75C6A5000000020E05A2
:100D710075C78075F51875C5038FC48EC375C65ABE
:090D810075C6A5000000020E0574
:100870007F017E00120D068F167F02120D068F1764
:100880007F03120D068F187F04120D068F197F0546
:10089000120D068F127F017E02120D068F1ED3E508
:1008A000129464748094804003751250E512F4042D
:1008B000249FF568D3E51E940974809480400375E5
:1008C0001E02D3E516940974809480400F751601BA
:0D08D000751702751803751904120CC52266
:100CC500E4FFFE120D71AD160F120D21AD170F12B7
:100CD5000D21AD180F120D21AD190F120D21AD12F9
:040CE5000F020D21CC
:0D0E1200AD077F007E02120D710F020D2151
:10097500011300011500011000011400011100010F
:100985001600011700011800011900011A01011BC9
:0709950002011C03011D0417
:1008DD00E51314601E14601D1460211460152404AA
:1008ED007053E4F515AF5AAE591206F8AF54AE5326
:1008FD0002077D803D120B07E4F51522AD357F68AB
:10090D00120006AD2F7F6A120006E51E75F0648495
:10091D00E5F075F00A842425F8E6FD7F6C120006DB
:10092D00E51E75F00A84742525F0F8E6FD7F6E024C
:06093D0000061204312245
:100431000514AF147E00C3EF947874809480500348
:10044100751001D3EF9478EE648094804003E4F555
:1004510010EF64F04E7002F5147425251AF8E6FDCC
:100461007F68120CEC7425251BF8E6FD7F6A120CDF
:10047100EC7425251CF8E6FD7F6C120CEC74252527
:100481001DF8E6FD7F6E120CECE51514602A146070
:10049100471460642403600302051AE51014600B1D
:1004A1000470767425251AF8E680087425251AF853
:1004B100E64480FD7F68805EE51014600E0470598B
:1004C1007425251BF8E6FD7F6A804B7425251BF8F2
:1004D100E64480FD7F6A803EE51014600E047039A9
:1004E1007425251CF8E6FD7F6C802B7425251CF8EE
:1004F100E64480FD7F6C801EE51014600E047019C7
:100501007425251DF8E6FD7F6E800B7425251DF8E9
:0A051100E64480FD7F6E120CEC2220
:10034200E51314601E1460721470030203CD14705E
:10035200030203DE24046003020430751303AF1E9C
:10036200020E42E51514601F14602E14603D240332
:100372006003020430051AD3E51A9409748094804C
:1003820050030204308071051BD3E51B940974806D
:10039200948050030204308070051CD3E51C94093C
:1003A200748094805003020430806F051DD3E51DD4
:1003B200940974809480407680710512D3E512947A
:1003C2006474809480406775120122051ED3E51E75
:1003D2009409748094804056751E0122E5151460BC
:1003E2001B14602914603724037043051AD3E51ADD
:1003F2009409748094804036E4F51A22051BD3E5F3
:100402001B9409748094804025E4F51B22051CD3BB
:10041200E51C9409748094804014E4F51C22051DA7
:0F042200D3E51D9409748094804003E4F51D22F6
:10051B00E51314603614606614606E146076240460
:10052B0060030205D9E511700F751101C2967FE8C2
:10053B007E03120D57D29622E4F511C284C2967F28
:10054B00207E03120D57D284D29622E51514601328
:10055B0014601914601F24037074151AE51AF470D3
:10056B006D8047151BE51BF470648049151CE51C59
:10057B00F4705B804B151DE51DF47052804D151208
:10058B00E512F4704975126322151EE51EF4703ED8
:10059B00751E0922E51514601514601D14602524C1
:1005AB0003702B151AE51AF47024751A0922151B02
:1005BB00E51BF47019751B0922151CE51CF4700E54
:0F05CB00751C0922151DE51DF47003751D09220D
:1009A800E51324FE60161460211460262403702DBC
:1009B800E515640370030205DA051522E4F513E56D
:1009C80012F404249FF568020CC5E4F513AF1E0267
:0E09D8000E12E51564037003020C550515227E
:1005DA00AF16120E42AF17120E42AF18120E42AFEA
:1005EA0019120E42E51A6408702AE51B6408702481
:1005FA00E51C6408701EE51D640870187F207E03E0
:10060A00120D57751304751A01751B01751C0175B6
:10061A001D01804AE51A65167024E51BB5171FE50A
:10062A001CB5181AE51DB51915AD327F68120CEC08
:10063A00120DB87F207E03120D5775130222AD34B6
:10064A007F68120CEC120DB87F207E03120D5775CD
:10065A001301751A01751B02751C03751D04E4F557
:02066A00152257
:100C5500851A16851B17851C18851D19120CC57F4D
:100C65002C7E01120D57E4F513751A01751B0275DB
:060C75001C03751D0422A2
:100DB800AD257F6A120CECAD257F6C120CECAD25CD
:050DC8007F6E020CEC3F
:100B0700AD267F68120CECAD2F7F6A120CECE51254
:100B170075F06484E5F075F00A842425F8E6FD7F16
:100B27006C120CECE51275F00A84742525F0F8E6D2
:060B3700FD7F6E020CECD4
:1009E600120DCD7F49120A5D120C01E4F55BC3E5D9
:1009F6005B940874809480501AD2C3E55C25E0F5B8
:100A06005C30C202055C7F0A7E00120DA2C2C305DD
:0B0A16005B80DB120C01120DE9AF5CED
:010A210022B2
:100A22001209E6EF24B1601E24F8601F24F860204A
:100A3200241870260513D3E513940474809480401F
:100A420012E4F513800D120342800812051B800385
:0A0A52001209A87F2C7E01120D5737
:010A5C002277
:05099C00C10101683CEF
:100D3C0043BA8090FEA8743FF053BA7F43BC8053F3
:0B0D4C00BCF0EF540F42DE43DE20221B
:100BD50053BCF0EF42BC43BC40000000E5BC30E52F
:100BE500FB53BCDFAFBDEFFEACBEECFBEBFFA805D6
:0B0BF500088005CEC313CE13D8F9FF13
:010C000022D1
:09023900E566640160030203366E
:10024200FDFF120BD58E5B8F5CD3E55C9568E55B99
:100252009400400D20010AD2010554E554700205B4
:1002620053AF68120E42D3E55C9568E55B9400409B
:1002720016E55C94C8E55B9400500CC285E51160FC
:1002820003020341C28422D3E55C94C8E55B940077
:100292004018E55C9490E55B9401500EC285C286DD
:1002A200E5116003020341C28422D3E55C9490E528
:1002B2005B94014017E55C9458E55B9402500DC2D3
:1002C20085C286C287E5117076C28422D3E55C942A
:1002D20058E55B94024019E55C9420E55B94035079
:1002E2000FC285C286C287C294E5117052C28422AF
:1002F200D3E55C9420E55B9403401BE55C94E8E560
:100302005B94035011C285C286C287C294C295E52E
:1003120011702CC28422D3E55C94E8E55B9403401F
:100322001EC285C286C287C294C295C296E511706A
:030332000EC28474
:0D03350022E5667007C201120E1FD284225D
:0D0E1F00D285D286D287D294D295D2962267
:100D8A0075985075D7CC75D6FF758E15E4F542F572
:080D9A0041C202D2ACD2AF222B
:080E42002002FDD2028F99226B
:100C7B008B638A648965AB63AA64A96512080260F9
:100C8B00130565E5657002056414F9120802FF127D
:050C9B000E4280E22280
:03002300020CA02C
:100CA000C0E0C0D075D008309904C299C202309813
:100CB0000FC298AF42054274432FF8A69953420FD2
:050CC000D0D0D0E032AD
:0609A10001660001670081
:100B3D0030C00320CC0FE566700B756601055AE5D4
:100B4D005A7002055930C01B30CC18E5666401702F
:100B5D00120567D3E5679464748094804005E4F5CD
:040B6D0067F56622A0
:0300000002066C89
:0C066C00787FE4F6D8FD7581680206B3C3
:10080200BB010689828A83E0225002E722BBFE02F4
:09081200E32289828A83E4932227
:10081B00BC000BBE0029EF8DF084FFADF022E4CCC1
:10082B00F875F008EF2FFFEE33FEEC33FCEE9DEC8A
:10083B00984005FCEE9DFE0FD5F0E9E4CEFD22EDD0
:10084B00F8F5F0EE8420D21CFEADF075F008EF2F1A
:10085B00FFED33FD4007985006D5F0F222C398FD0B
:05086B000FD5F0EA22A8
:10067800020B71E493A3F8E493A34003F68001F21C
:1006880008DFF48029E493A3F85407240CC8C33383
:10069800C4540F4420C8834004F456800146F6DF52
:1006A800E4800B0102040810204080900943E47E96
:1006B800019360BCA3FF543F30E509541FFEE49347
:1006C800A360010ECF54C025E060A840B8E493A30E
:1006D800FAE493A3F8E493A3C8C582C8CAC583CA39
:1006E800F0A3C8C582C8CAC583CADFE9DEE780BEF1
:0109A700004F
:00000001FF
